:020000041A00E0
:1000000000800010C504001A7901001A7B01001A53
:100010007D01001A7F01001A8101001ACA73FF5383
:100020000000000000000000000000008301001A32
:100030008501001A000000008701001A6118001AEB
:10004000BB01001ABB01001ABB01001A000000002E
:10005000BB01001ABB01001ABB01001ABB01001A48
:10006000AD19001ABB01001ABB01001ABB01001A2E
:10007000BB01001ABB01001ABB01001ABB01001A28
:10008000BB01001ABB01001ABB01001ABB01001A18
:10009000BB01001ABB01001ABB01001ABB01001A08
:1000A000BB01001ABB01001ABB01001ABB01001AF8
:1000B000BB01001ABB01001ABB01001ABB01001AE8
:1000C000BB01001ABB01001ABB01001ABB01001AD8
:1000D000BB01001ABB01001ABB01001ABB01001AC8
:1000E000BB01001ABB01001ABB01001ABB01001AB8
:1000F00000000000BB01001ABB01001ABB01001A7E
:1001000000000000BB01001ABB01001ABB01001A6D
:10011000BB01001ACC20001A0000001048000000AB
:10012000CC20001A0000081000000000CC20001AAB
:100130000000002000000000CC20001A00800020F9
:1001400000000000CC20001A00C0002000000000C9
:10015000480000103C0000000000081000000000F3
:1001600000000020000000000080002000000000CF
:1001700000C0002000000000FEE7FEE7FEE7FEE70B
:10018000FEE7FEE7FEE7FEE7FEE7002393420AD222
:1001900010B450F8044B41F8044B04339342F8D3A5
:1001A0005DF8044B70477047002303E0002240F8DD
:1001B000042B04338B42F9D37047FEE7FFFFFFFFA8
:1001C000FFFFFFFFFFFFFFFFFFFFFFFFFFFFFFFF3F
:1001D000FFFFFFFFFFFFFFFFFFFFFFFFFFFFFFFF2F
:1001E000FFFFFFFFFFFFFFFFFFFFFFFFFFFFFFFF1F
:1001F000FFFFFFFFFFFFFFFFFFFFFFFFFFFFFFFF0F
:10020000FFFFFFFFFFFFFFFFFFFFFFFFFFFFFFFFFE
:10021000FFFFFFFFFFFFFFFFFFFFFFFFFFFFFFFFEE
:10022000FFFFFFFFFFFFFFFFFFFFFFFFFFFFFFFFDE
:10023000FFFFFFFFFFFFFFFFFFFFFFFFFFFFFFFFCE
:10024000FFFFFFFFFFFFFFFFFFFFFFFFFFFFFFFFBE
:10025000FFFFFFFFFFFFFFFFFFFFFFFFFFFFFFFFAE
:10026000FFFFFFFFFFFFFFFFFFFFFFFFFFFFFFFF9E
:10027000FFFFFFFFFFFFFFFFFFFFFFFFFFFFFFFF8E
:10028000FFFFFFFFFFFFFFFFFFFFFFFFFFFFFFFF7E
:10029000FFFFFFFFFFFFFFFFFFFFFFFFFFFFFFFF6E
:1002A000FFFFFFFFFFFFFFFFFFFFFFFFFFFFFFFF5E
:1002B000FFFFFFFFFFFFFFFFFFFFFFFFFFFFFFFF4E
:1002C000FFFFFFFFFFFFFFFFFFFFFFFFFFFFFFFF3E
:1002D000FFFFFFFFFFFFFFFFFFFFFFFFFFFFFFFF2E
:1002E000FFFFFFFFFFFFFFFFFFFFFFFFFFFFFFFF1E
:1002F000FFFFFFFFFFFFFFFFFFFFFFFFFFFFFFFF0E
:040300000107001AD7
:1003040030B504460846931E222B18D80B46A64641
:1003140094FBF2F402FB14EC0CF1230C19460133A8
:100324000F4D15F80CC081F800C0002CEFD1BEF1C0
:10033400000F07DB002203F8012902460CE000232A
:100344000B700BE02D221A708B1CF3E719781478CC
:1003540003F8014902F8011B9342F7D830BD00BFEE
:10036400BC1D001A70B58CB001F02CFB4FF4E131C8
:10037400032001F0B5FA002001F044F8002001F058
:10038400C9F84FF4FA72002306A801F055FBC822FD
:100394000023684601F050FB00252E4608E00021AA
:1003A400084601F0D9F8684601F056FB00286DD1E3
:1003B40006A801F051FB0028F5D0002001F07EF8DA
:1003C4003A4C0A222146FFF79BFF3949032001F0EA
:1003D400DFFA2146032001F0DBFA3649032001F05D
:1003E400D7FA354C2146032001F0B8FA2378303B84
:1003F400092BD8D801A252F823F000BFA303001A96
:100404002904001A3304001A3D04001A4904001A8E
:100414005504001A6104001A6D04001A7904001AC4
:100424008504001A7221002001F096F8BBE7E4214C
:10043400002001F091F8B6E74FF4AB71002001F011
:100444008BF8B0E74FF4E471002001F085F8AAE7D7
:1004540040F23A21002001F07FF8A4E74FF42B7119
:10046400002001F079F89EE740F21D31002001F0F0
:1004740073F898E740F28E31002001F06DF892E7AE
:1004840040F2FF31002001F067F88CE786F00106A6
:1004940031462B2001F060F90135142D88D14FF439
:1004A4007A720023684601F0F5FA81E748000010EB
:1004B400041E001A141E001A540000107047000095
:1004C40010B572B6194B1A4AC3F80021194AC3F879
:1004D4000421002305E0184A4FF0FF3142F82310AD
:1004E4000133072BF7D962B6144B07E003F10C0470
:1004F4009A6859681868FFF746FE2346104A9342E3
:10050400F4D306E01C46596854F8080BFFF74AFE7A
:1005140023460C4A9342F5D300F04AFF01F020FC35
:10052400FFF7CCFFFFF71EFF30BFFDE700300540AB
:100534000010DF10FFF7DF0180E200E01401001A71
:100544005001001A7801001A704770470022052AEA
:100554001BD810B50D4B13F812E003EB420393F8CC
:1005640001C00B4B0EF5006453F82410012000FA6F
:100574000CF0014343F8241003EB4E13002103F85D
:100584000C100132052AE5D910BD7047241E001A4B
:1005940000400F400023032B19D810B40C4911F864
:1005A400132001EB430191F801C00A4C02F50062EB
:1005B40054F82210012000FA0CF021EA000144F85A
:1005C40022100133032BE9D95DF8044B70477047BF
:1005D4001C1E001A00400F400023082B19D810B429
:1005E4000C4911F8132001EB430191F801C00A4CA6
:1005F40002F5006254F82210012000FA0CF021EAFE
:10060400000144F822100133082BE9D95DF8044BAA
:1006140070477047301E001A00400F4010B582B07A
:10062400084C6946204600F0F5F8074A694620461A
:1006340000F056F900226946204600F06AF902B03B
:1006440010BD00BF00300E40801A060010B50B4CE0
:10065400204600F017FD636823F0040363602368F9
:1006640023F0FF0343F0070323600549204600F00D
:10067400E8FC636843F00203636010BD00500C4063
:10068400A086010008B5002000F08AFC044B40F667
:100694000802C3F8842C0349002000F095FC08BD2F
:1006A4000060084040420F0010B5074C204600F09F
:1006B400C7FD4FF4E131204600F00CFE0323E36054
:1006C4000123E36510BD00BF00100C4008B5FFF71F
:1006D400EBFF094800F053FCFFF77EFFFFF79EFF96
:1006E400FFF7B4FFFFF7CEFFFFF730FFFFF752FF2E
:1006F40000F038F908BD00BF00400F4008B5FFF70F
:10070400D3FF08BD00230CE0074A02EB830112F873
:1007140023C04A78488802EB4C12044941F822006D
:1007240001331C2BF0D970474C1E001A006008409E
:1007340010B5174AD2F8203123F4704343F4104320
:10074400C2F82031D2F8243123F4704343F4104327
:10075400C2F8243101220F49062000F0AFFC002426
:100764004CB10B4B5A6822F00C025A605A6842F0A2
:1007740003025A6010BD084800EB840101238A7803
:10078400497810F8240000F021FB0134E8E700BFA9
:100794000030044000CB280C481E001A08B5FFF7AF
:1007A400B1FFFFF7C5FF08BD034B984201D00320FA
:1007B40070470420704700BF00400E4070B50D46DE
:1007C40014461E46FFF7F0FF00F09AFB55B106FBF6
:1007D40004F404EB40006400B0FBF4F0C0B2013850
:1007E400C0B270BD04EB840304EB4304F1E7036877
:1007F40023F0E06343EA016303607047043150F877
:100804002130002B04DAC3F38913138001207047CD
:100814000020704738B505460C46FFF7C5FF012395
:100824001A46194600F01AFB0021E960084A2260C2
:10083400217161710B232846FFF7C0FF000240F4C9
:10084400001023795B0403F4602303432B6038BD59
:10085400801A060008B54FF48072C260002202605C
:10086400FFF7A2FF00F032FB08BD08B5FFF7C6FF93
:1008740008BD012A09D0022A0ED00AB1002070470F
:10088400006BC84000F0010070470831C9B2006B2A
:10089400C84000F001007047036B1B0C14BF01201B
:1008A40000207047012A06D0C36801228A4023EA47
:1008B4000203C3607047C3688A401343C360704730
:1008C40008B5012904D932B1036843F00063036019
:1008D400FFF78DFF08BD036823F000630360F7E7AB
:1008E40070B505460E46046824F46F2424F470643D
:1008F4000A600B79C3F10B03DBB24979FFF75EFFA2
:1009040044EA002433795B0403F4602323432B601B
:1009140070BD08B50A710A68FFF7E2FF08BD012A35
:100924000AD0036823F0E0630360036801228A406D
:1009340023EA02030360704703688A401343036099
:10094400704738B504460D460021FFF750FF25B91E
:10095400236823F48033236038BD236843F4803351
:100964002360F9E708B5692000F0CAFA014B186062
:1009740008BD00BF6000001070B586460B6813F018
:10098400800F02D023F040030B60754601243CE045
:100994004B6902FB03F3B3FBF4F31EE01846BEEB12
:1009A400000628D4B54207D98C600CF10105CD604E
:1009B4000A618861CB6135460132B2F5807F1CDC67
:1009C4000E6816F0400FE3D00CF1010302FA03F3B2
:1009D400486900FB03F3B3FBF4F30F488342EBD9FC
:1009E4000E48834209D816F0800FD7D10CF10100CC
:1009F40023FA00F0D3E77642D4E70CF1010CBCF102
:100A0400030F01DC0122D8E70134042C02DC4FF08F
:100A1400000CF4E770BD00BFFF5E4C0900D0121358
:100A2400F0B59DB005460C466022002101A801F0F6
:100A3400BBF9802301936369069323798DF8083009
:100A440001A92846FFF798FF079BAB422AD0EB1A6F
:100A540031D41E461993119B23F04003119363690B
:100A6400169323798DF8483011A92846FFF784FF9F
:100A7400179BAB4221D0EB1A27D41F461B932B4B59
:100A84009D4224D90F9BED1A34D41A95AE423BDC17
:100A9400BE4231DC01AD0FCD0FC495E80F0084E8F0
:100AA4000F0006E001AD0FCD0FC495E80F0084E8F8
:100AB4000F001DB0F0BD5B42CBE711AD0FCD0FC4ED
:100AC40095E80F0084E80F00F3E75B42D5E7402385
:100AD400099363690E9309A92846FFF74DFF0F9BFD
:100AE400AB42CFD109AD0FCD0FC495E80F0084E818
:100AF4000F00DEE76D42C8E711AD0FCD0FC495E8D6
:100B04000F0084E80F00D4E7AF4207DB09AD0FCD37
:100B14000FC495E80F0084E80F00CAE711AD0FCDAC
:100B24000FC495E80F0084E80F00C2E780778E06B3
:100B3400844600231C201C2820D110B402E0013379
:100B44001C2818D103EB43010D4A02EB4102117931
:100B5400814210D003EB4302094C34F81220624561
:100B6400EDD803EB4304064A02EB44025288624583
:100B7400E5D30846E4E75DF8044B7047704700BFCF
:100B8400C81E001A82B04FF47A7301930D4A936918
:100B940023F0020192698A4201D00A4A916123F04A
:100BA4000303094A1168094A914201D943F0040335
:100BB400044A9361019B5A1E0192002BFAD102B0A0
:100BC400704700BF00000540441E001AFF2C31018D
:100BD4001230054B53F8200010F0010F02D1C0F37E
:100BE40004607047112070470000054000F11202B4
:100BF400034B53F82220034B185C00EA9200704721
:100C040000000540C01E001A08B510280AD8DFE805
:100C140000F0440B0D18210924272A2D090930342A
:100C2400383C4000002008BD1E48FCE71E4BD3F8AA
:100C34002C3103F00703042B01D01C48F3E70020F8
:100C4400F1E7194BD3F82C3103F00703042B27D019
:100C54001648E8E7164B1868E5E7164B1868E2E70C
:100C6400154B1868DFE7144B5868DCE700F068F8A8
:100C7400D9E7002100F098F8D5E7012100F094F8B5
:100C8400D1E7022100F090F8CDE7032100F08CF8C1
:100C9400C9E7042100F088F8C5E74FF40040C2E733
:100CA4000648C0E7001BB7000030044040787D01CF
:100CB400181E001A441E001A6400001080F0FA0284
:100CC40038B505460C460879FFF79EFF6061194B5D
:100CD4002B44194A934221D818B38023236000235C
:100CE400A360E360B5FBF0F32361144A954203D992
:100CF40000FB03F3AB4207D021462846FFF790FEE2
:100D0400A3688BB1013BA360236983B1E2680AB194
:100D1400013AE260013B2361002038BD4FF0FF300F
:100D2400FBE74FF0FF30F8E74FF0FF30F5E74FF007
:100D3400FF30F2E7103A6BFF1005940BFF5E4C098D
:100D440030B583B0164D6C6CC4F30360FFF75CFFE1
:100D54008446144B0193286C10F001001DD0C4F399
:100D64000742C4F30133C4F30121C4F380100132F8
:100D740001330831694411F8041C14F0800F08D1C0
:100D840038B94900B2FBF1F2BCFBF3F002FB00F00E
:100D940003E0BCFBF3F302FB03F003B030BD00BF80
:100DA400000005400102040838B50C460846FFF768
:100DB4000FFF05462046FFF719FF04462846FFF7B4
:100DC40023FF0134B0FBF4F038BD000030B400F16F
:100DD400160C4FEA8C0C0CF1804C0CF5A02CDCF8B2
:100DE40004401B2813D811291AD00E4D25400AB1EE
:100DF40045F400650BB145F0010545EA016516307F
:100E0400800000F1804000F5A020456008E044F037
:100E140001041630800000F1804000F5A0204460F9
:100E240030BC7047FEF7FFE01B280DD800F1160315
:100E34009B0003F1804303F5A023586810F0010FD1
:100E440004D1C0F30460704711207047112070472B
:100E540008B5FFF7E9FFFFF7D7FE08BD71B9012117
:100E64000AB141F00401022B0AD0B0F5A17F0AD3E4
:100E7400A0F59170064B43F8301070470321EFE75B
:100E840041F02001F1E72030024B43F83010704765
:100E94000020054000100540B0F5A17F09D3094AA0
:100EA400A0F5917052F8303043F0010342F830302D
:100EB4007047054A203052F8303043F0010342F8BD
:100EC400303070470020054000100540B0F5A17F88
:100ED40009D3094AA0F5917052F8303023F0010388
:100EE40042F830307047054A203052F8303023F051
:100EF400010342F8303070470020054000100540DF
:100F040010B50346B0F5A17F08D3A0F591720D4941
:100F140051F8324014F0010006D110BD00F1200256
:100F2400094951F83240F5E71846FFF701FEFFF78B
:100F34008FFF14F0E00F03D10123B0FBF3F0ECE7D3
:100F44000223FAE7002005400010054008B50220FE
:100F5400FFF7BCFF08BD036803F48033890189B23D
:100F6400194301607047036823F480330360012947
:100F740000D07047036843F480330360F9E7704797
:100F8400012909D1C0EBC000044B03EB80031A69AB
:100F9400137DDBB2042BFBD0704700BF00000010B0
:100FA40070B50446074EC500C0EBC00306EB8303CF
:100FB4009888FFF771FF2D1B56F825306C229A6133
:100FC40070BD00BF000000102DE9F04104468846C2
:100FD4000B4DC600C0EBC0039F0005EB830398884C
:100FE400FFF78EFFB0FBF8F1EB594A081A61361B84
:100FF40055F826301A69891A5961BDE8F08100BF95
:1010040000000010034B984201D083207047A520B4
:10101400704700BF00500C40044B984202D040F28D
:10102400022070474FF4F170704700BF00500C402D
:10103400036823F47F43090289B219430160026102
:10104400704738B505460C46FFF7E6FFFFF758FF33
:1010540002224FF0FF33002100E06146A3420DD984
:1010640001F1010C01FB0223B0FBF3F39C42F5D226
:10107400BCF1FF0FF1D902320021EFE72846FFF758
:10108400D7FF38BD10B50446FFF7BCFFFFF704FFD8
:101094002046FFF7C1FFFFF7FFFE636823F0040358
:1010A4006360236823F0FF0343F0070323600249CE
:1010B4002046FFF7C6FF10BDA086010070B58AB0B8
:1010C40005460E4614464CF250330993062818D0B0
:1010D4000023012229460420FFF778FE4A4A536C74
:1010E40043F0010353648DF8085001A93046FFF71B
:1010F400E7FD464B9E4216D9019B13F0400F03D0E7
:10110400FEE7FFF73FFDE3E713F0800F05D023F080
:10111400800301930026012507E0049B0133049317
:101124000126002501E0002635469DF80820019B94
:1011340043EA0263059A43EA0243039A43EA023309
:10114400049A43EA022343F400632F4A53642E4B68
:101154001B6C13F0010FFAD0002301220921042093
:10116400FFF734FE05B34CF250330993099B5A1E22
:101174000992002BFAD1019B43F0800301939DF85F
:10118400082043EA0263059A43EA0243039A43EAC6
:101194000233049A43EA022343F400631A4A536471
:1011A400002C2ED10AB070BD002EF9D04CF2503371
:1011B4000993099B5A1E0992002BFAD1049A013A09
:1011C40004929DF80810019B43EA0163059943EAE0
:1011D4000143039943EA013343EA022343F40063DE
:1011E400094A5364DCE70A4800EB8401CB788A7827
:1011F400497810F82400FFF7E9FD0134112CF2D9E5
:10120400D0E70024FAE700BF0000054080778E068F
:10121400341F001A094B98420BD003F580539842AF
:1012240009D0A3F58023984201D000207047012003
:101234007047022070470320704700BF00100C4025
:1012440030B583B00446FFF7E5FF01231A4619467B
:101254000E4D35F81000FFF701FE0723A3600023AD
:10126400E3656360E3602362E36463652365084BBD
:101274009C4206D00323E3601023A362019B03B0C6
:1012840030BD00232361A3690193F3E7841F001A8F
:101294000020084038B505460C46FFF7BBFF0C4B51
:1012A40033F81000FFF72CFE2101B0FBF1F1CAB2B4
:1012B400EB6843F08003EB602A60C1F307236B60A3
:1012C400EB6823F08003EB60B0FBF1F0000938BD5C
:1012D4007C1F001A2DE9F04F83B001908846FFF778
:1012E40099FF324B33F81000FFF70AFE06464FF021
:1012F400FF3701244FF0000BA246D9462AE04242B0
:101304004B1C17E00AB31746AB46A2469946013573
:10131400AC421ED931093007A4FB000C621908FB4A
:1013240002F2002304FB01C100F0C2FB02460B469B
:101334000028E4DB9742EAD3002BE8D0190CE6D16D
:10134400022BDFD8002DDDD0E1E71746AB46A246DD
:10135400994601341FB10F2C01D80025D8E7B9F103
:10136400000F1ED00199CB6843F08003CB605FFA75
:1013740089F30B60C9F307234B60CB6823F0800328
:10138400CB604FEA0A13DBB20BF00F0213438B62FC
:1013940033090AFB03F30AEB0B0209FB02F2B3FB6A
:1013A400F2F9484603B0BDE8F08F00BF7C1F001A75
:1013B40008B50B4A0B4B9A6003F500731B6C03F4DE
:1013C4007F63202B04D0FFF7E9F9FFF77FF908BD0D
:1013D400044AD2F8883043F47003C2F88830F2E744
:1013E4000000001A00ED00E0044B1860044A136882
:1013F40043F0010313600120704700BF3800001060
:10140400001000E030B583B018B101284AD003B011
:1014140030BD264B6D4693E8030085E80300244C59
:1014240029462046FFF7F6F900212046FFF789FAFE
:10143400204A29462046FFF753FA0022012120467C
:10144400FFF76DFA002201212046FFF72BFA002254
:1014540002212046FFF763FA002202212046FFF70B
:1014640021FA002203212046FFF759FA0022032122
:101474002046FFF717FA002204212046FFF74FFA0F
:10148400002204212046FFF70DFA0B4AD2F8883CCB
:1014940043F01003C2F8883C002205212046FFF7E0
:1014A40001FAB4E70248FFF7D5F9B0E78C1F001A38
:1014B40000300E40400D03000060084070B582B05B
:1014C400441CE4B20026ADF80660114D0122214609
:1014D4002846FFF724FA324601212846FFF7F0F99F
:1014E400002221460A48FFF7C4F90128F8D1084D23
:1014F4000DF1060221462846FFF7B7F900222146DE
:101504002846FFF70CFABDF8060002B070BD00BF14
:1015140000300E4010B510B1012816D010BD0123C3
:101524001A4619460220FFF799FC0A4C012120466D
:10153400FFF719FD636823F00F0343F008036360AA
:1015440000212046FFF707FDE8E70248FFF7FEFC0D
:10155400E4E700BF00100E4048B908B5B1F5806F4C
:1015640001D340F2FF310248FFF7F5FC08BD704794
:1015740000100E4010B40C4C00EB800004EB000C87
:10158400205608709CF9011011709CF902201A7001
:101594009CF90320019B1A709CF90420029B1A7089
:1015A4005DF8044B704700BF941F001A10F1020F3E
:1015B40000F0C68030B585B00C46B0F1FF3F00F0B6
:1015C400C18000238DF80F308DF80E308DF80D306A
:1015D4008DF80C308DF80B300DF10B03019303AB38
:1015E40000930DF10D030DF10E020DF10F01FFF744
:1015F400C1FF052C00F2A980DFE804F0088026442E
:1016040062035348FFF7BBFC01209CE09DF80F10D8
:101614009DF80E309DF80D2042F0D00203EB4113EB
:101624004C4941F823209DF80C309DF90B10012002
:1016340000FA01F1464C03F5006354F8232022EA32
:10164400010244F823207EE09DF80F109DF80E302F
:101654009DF80D2042F0C00203EB41133D4941F8CF
:1016640023209DF80C309DF90B10012000FA01F1A4
:10167400374C03F5006354F8232022EA010244F8AE
:10168400232060E09DF80F109DF80E309DF80D208A
:1016940042F0D80203EB41132E4941F823209DF870
:1016A4000C309DF90B10012000FA01F1284C03F5D0
:1016B400006354F8232022EA010244F8232042E084
:1016C4009DF80F109DF80E309DF80D2042F0C802D1
:1016D40003EB41131F4941F823209DF80C309DF979
:1016E4000B10012000FA01F1194C03F5006354F8C2
:1016F400232022EA010244F8232024E09DF80F105D
:101704009DF80E309DF80D2042F0D00203EB4113FA
:10171400104941F823209DF80C009DF90B1001227B
:101724008A400B4B00F5006C53F82C502A4343F8C5
:101734002C20C9B203EB401300225A54204602E085
:1017440000207047002005B030BD0020FBE700BF3B
:1017540000400F400060084010F1020F2DD010B57A
:1017640084B00C46B0F1FF3F29D000238DF80F3030
:101774008DF80E308DF80D308DF80C308DF80B305F
:101784000DF10B03019303AB00930DF10D030DF168
:101794000E020DF10F01FFF7EDFE9DF80C309DF8E0
:1017A4000B20211E18BF01215B0103F1402303F527
:1017B40070239954012004B010BD0020704700200C
:1017C400F9E70000014BD3E90001704770000010F5
:1017D40020B14FF0E02307221A6170474FF0E02355
:1017E40000221A617047000010B550EA010328D0A6
:1017F400421E41F1FF33322A73F1000326D2144B07
:1018040018605960134B1C68A4FB000C4FF47A72E7
:10181400002304FB01C100F04BF90138B0F1807FD3
:101824000AD24FF0E02358610B4AE02182F82310DA
:1018340000229A6107221A610120FFF7C9FF0120E3
:1018440010BD0020FFF7C4FF0020F9E70020F7E7F0
:10185400400000106000001000ED00E008B5074AE9
:1018640013685168013341F1000113605160044B66
:101874001B6813B1034A1068984708BD7000001034
:10188400780000106C00001000EB4000034B53F88C
:101894002030586900F00100704700BF7C20001A16
:1018A40000EB4000034B53F82030586900F020004F
:1018B400704700BF7C20001A00EB4000024B53F835
:1018C40020301868C0B270477C20001A00EB40003A
:1018D400024B53F820301960704700BF7C20001A77
:1018E4002DE9F84304468946194D00EB400305EB06
:1018F400830655F823703846FFF7A2FC494638465C
:10190400FFF7C8FC0723BB603B680123FB65307904
:101914007379B27942F018020E4903EB401341F88F
:101924002320F079337A727A42F0D00203EB401329
:1019340041F82320012C01D0BDE8F883064AD36C7A
:1019440043F03003D3641A22C1F80823F4E700BF3C
:101954007C20001A006008400010084038B5054695
:101964000C46FFF791FF00B938BD2846FFF7A4FFE6
:1019740020700120F8E738B504460D462046FFF7ED
:101984008FFF0028FAD029462046FFF79FFF38BD75
:1019940038B505460C4603E02846FFF7ECFF013452
:1019A40021780029F8D138BD08B5044B1B681B68A1
:1019B400DB68034A1068984708BD00BF8000001028
:1019C4007C00001008B5FEF7CDFF1A4B1868FFF72E
:1019D4000BFD01200021FFF707FF05210020FFF781
:1019E400E5FD00212420FFF7E1FD00212520FFF77C
:1019F400DDFD00212620FFF7D9FD00212720FFF778
:101A0400D5FD01212820FFF7D1FD01212920FFF771
:101A1400CDFD01212A20FFF7C9FD01212B20FFF76D
:101A2400C5FD01212C20FFF7C1FD01212D20FFF769
:101A3400BDFD08BD6000001010B5044610461946EF
:101A4400044BD3E9002300F033F8C4E90201002376
:101A5400237410BD4000001038B50446057C3DB920
:101A6400FFF7B0FEC4E9000101232374284638BD02
:101A7400FFF7A8FE23686268C01A61EB0201A2683E
:101A8400E3689042994103D3002323740125EDE7D1
:101A94000025EBE710B5044610461946034BD3E97D
:101AA400002300F005F8C4E9020110BD4000001055
:101AB40053B94AB9002908BF00281CBF4FF0FF31B1
:101AC4004FF0FF3000F04AB9ADF1080C6DE904CED7
:101AD40000F006F8DDF804E0DDE9022304B0704705
:101AE4002DE9F0478C468E46089E15460446194655
:101AF400002B40F0AF807245B2FA82F743D94FB160
:101B0400C7F120030EFA07FC20FA03F3BD4043EAB1
:101B14000C0CBC404FEA154EA8B2BCFBFEF8230CDB
:101B24000EFB18CC08FB00F943EA0C43994528D96D
:101B3400EB1808F1FF3204D2994502D9A8F1020248
:101B44002B44A3EB0903B3FBFEFCA4B20EFB1C3332
:101B54000CFB00F044EA0344A04279D92C190CF19F
:101B6400FF3304D2A04202D9ACF102032C44241A5C
:101B740043EA02401EB1FC40002334607360BDE8B8
:101B8400F0874246DDE702B9FFDEE7B9AEEB0203B8
:101B940001214FEA154EA8B2B3FBFEFC220C0EFB4A
:101BA4001C330CFB00F842EA034398454ED9EB186A
:101BB4000CF1FF3204D2984502D9ACF102022B4455
:101BC400A3EB0803BFE7C7F120012EFA01F3BD40E0
:101BD4000EFA07FE20FA01F141EA0E014FEA154E12
:101BE400AAB2B3FBFEFC0EFB1C300B0C0CFB02F880
:101BF40043EA0043984504FA07F423D9EB180CF19F
:101C0400FF3004D2984502D9ACF102002B44A3EB77
:101C14000803B3FBFEFC0CFB02F80EFB1C328BB278
:101C240043EA024398450FD9EB180CF1FF3104D273
:101C3400984502D9ACF102012B44A3EB080341EA15
:101C44000041A6E76046E2E76146F6E76246B7E789
:101C540063468CE7734505D90EB1C6E9000E002131
:101C640008468CE7B3FA83F787B9734501D38242F8
:101C74000AD8841A6EEB030301209C46002E6AD016
:101C8400C6E9004C00217AE73846F7E7C7F1200C93
:101C9400BB4022FA0CF41C4320FA0CF12EFA0CF38C
:101CA4000EFA07FE41EA0E014FEA144900FA07F55D
:101CB400B3FBF9F81FFA84FE09FB18300B0C08FB80
:101CC4000EFA43EA00439A4502FA07F23FD9E318B1
:101CD40008F1FF3004D29A4502D9A8F10200234446
:101CE400A3EB0A0389B2B3FBF9F809FB183308FB29
:101CF4000EFE41EA03418E452BD9611808F1FF33EA
:101D040004D28E4502D9A8F10203214443EA0040DB
:101D1400A0FB0298A1EB0E014145CE46434602D3F7
:101D240006D14D4504D2B9EB020E68EB0403013829
:101D34008EB1B5EB0E0261EB030101FA0CFC22FA41
:101D440007F34CEA0303F940C6E900319AE7404639
:101D5400C6E74346DAE7314611E70000704700BFA3
:101D640070B50D4D0D4C641BA4100026A64209D17C
:101D74000B4D0C4CFEF7E9FB641BA4100026A64295
:101D840005D170BD55F8043B98470136EEE755F888
:101D9400043B98470136F2E70003001A0003001AD7
:101DA4000003001A0403001A02440346934200D1BC
:101DB400704703F8011BF9E77A79787776757473BD
:101DC4007271706F6E6D6C6B6A6968676665646367
:101DD4006261393837363534333231303132333465
:101DE40035363738396162636465666768696A6B7A
:101DF4006C6D6E6F707172737475767778797A0022
:101E0400414443204348312076616C75653A200093
:101E14003B0D0A000000000000040008000901094D
:101E2400050005010502000E010B010C030003036C
:101E34000304050F05100305030603070208000049
:101E4400001BB700010F010102004400020144001D
:101E540002024400020A4000020B4000020C40004F
:101E64000100500001015000010250000106500021
:101E740006015000060450000605500006075400F1
:101E84000608540006095000060A5000060B5000CC
:101E9400060C50000F04F0000103D5000104D50026
:101EA4000701160007025600020352000204520002
:101EB400090552000906570006025700030F0F0FC9
:101EC400FF000000000005000A00200024000900B3
:101ED4004000400005006000A6000400C000C300EC
:101EE4000200E000E0000100000100010300200105
:101EF40020010600400140010C004201420119008A
:101F0400620162011300820182011200A201A20196
:101F14001100C201C2011000E201E2010F0002023D
:101F240002020E00220222020D00230223021C00E0
:101F340000010100090901000A090100010701016A
:101F440002090100060901000C0901010D09010043
:101F54000E0901000F090100100901001109010017
:101F640012090100130901001411010019110100E3
:101F74001A1101001B110100C201A20182016201B8
:101F840081008200A100A200801A06000A0000005D
:101F94000401000201070500030D01050001080406
:101FA400020002020403000203040000020007040A
:101FB40000030C03020405090301040508020304D9
:101FC40005030204040504060C000208060B0003C2
:101FD400070609000305060704050F0604000303AA
:101FE40004040002040405000205040600020604B9
:101FF4000804050C040A04050E010300000A011478
:1020040000000F011200000D011100000C0110006E
:102014000003070700030F00010000010000000097
:1020240000060A000306060804051006050003045A
:102034000601000300040904050D010400000B015E
:102044000F00000201000000040101000008010269
:102054000000090106000109020004050002010450
:1020640005010202040502020A00000E020B00012F
:102074000B020C00010C00000010084006040206CC
:102084000502180000100840090507090607180092
:1020940000200840000000000000190000100C405F
:1020A4000701060702061A0000100C40010F010187
:1020B40010011A0000200C400203020204021B005B
:0820C40020FAFF7F010000007B
:1020CC0000100A4022000000850F001A00000000DA
:1020DC0000000000000000000000000000000E40A6
:1020EC0001000000850F001A000000000000000035
:1020FC00000000000000000000CB280CFFFFFFFFD9
:08210C000100000000000000CA
:040000051A0004C514
:00000001FF
