:020000041A00E0
:10000000008000106905001A7901001A7B01001AAE
:100010007D01001A7F01001A8101001A2673FF5327
:100020000000000000000000000000008301001A32
:100030008501001A000000008701001A9917001AB4
:10004000BB01001ABB01001ABB01001A000000002E
:10005000BB01001ABB01001ABB01001ABB01001A48
:10006000291D001ABB01001ABB01001ABB01001AAE
:10007000D518001A1519001A5519001A9919001ADD
:10008000BB01001ABB01001ABB01001ABB01001A18
:10009000BB01001ABB01001ABB01001ABB01001A08
:1000A000BD01001ABB01001A151D001A1F1D001A00
:1000B000BB01001ABB01001ABB01001ABB01001AE8
:1000C000BB01001ABB01001ABB01001ABB01001AD8
:1000D000BB01001ABB01001ABB01001ABB01001AC8
:1000E000BB01001ABB01001ABB01001ABB01001AB8
:1000F00000000000BB01001ABB01001ABB01001A7E
:1001000000000000BB01001ABB01001ABB01001A6D
:10011000BB01001AE03B001A00000010EC000000D8
:10012000E03B001A0000081000000000E03B001A4D
:100130000000002000000000E03B001A00800020CA
:1001400000000000E03B001A00C00020000000009A
:10015000F0000010D00000000000081000000000B7
:1001600000000020000000000080002000000000CF
:1001700000C0002000000000FEE7FEE7FEE7FEE70B
:10018000FEE7FEE7FEE7FEE7FEE7002393420AD222
:1001900010B450F8044B41F8044B04339342F8D3A5
:1001A0005DF8044B70477047002303E0002240F8DD
:1001B000042B04338B42F9D37047FEE708B50020C7
:1001C00001F00CFC08BDFFFFFFFFFFFFFFFFFFFF7B
:1001D000FFFFFFFFFFFFFFFFFFFFFFFFFFFFFFFF2F
:1001E000FFFFFFFFFFFFFFFFFFFFFFFFFFFFFFFF1F
:1001F000FFFFFFFFFFFFFFFFFFFFFFFFFFFFFFFF0F
:10020000FFFFFFFFFFFFFFFFFFFFFFFFFFFFFFFFFE
:10021000FFFFFFFFFFFFFFFFFFFFFFFFFFFFFFFFEE
:10022000FFFFFFFFFFFFFFFFFFFFFFFFFFFFFFFFDE
:10023000FFFFFFFFFFFFFFFFFFFFFFFFFFFFFFFFCE
:10024000FFFFFFFFFFFFFFFFFFFFFFFFFFFFFFFFBE
:10025000FFFFFFFFFFFFFFFFFFFFFFFFFFFFFFFFAE
:10026000FFFFFFFFFFFFFFFFFFFFFFFFFFFFFFFF9E
:10027000FFFFFFFFFFFFFFFFFFFFFFFFFFFFFFFF8E
:10028000FFFFFFFFFFFFFFFFFFFFFFFFFFFFFFFF7E
:10029000FFFFFFFFFFFFFFFFFFFFFFFFFFFFFFFF6E
:1002A000FFFFFFFFFFFFFFFFFFFFFFFFFFFFFFFF5E
:1002B000FFFFFFFFFFFFFFFFFFFFFFFFFFFFFFFF4E
:1002C000FFFFFFFFFFFFFFFFFFFFFFFFFFFFFFFF3E
:1002D000FFFFFFFFFFFFFFFFFFFFFFFFFFFFFFFF2E
:1002E000FFFFFFFFFFFFFFFFFFFFFFFFFFFFFFFF1E
:1002F000FFFFFFFFFFFFFFFFFFFFFFFFFFFFFFFF0E
:04030000AF08001A28
:1003100030B583B00DF10701032001F0D3FC68B3C1
:100320009DF80730522B1CD02B3B2E2B20D8DFE81A
:1003300003F0631F871F1F5C1F1F1F1F1F1F1F1F2F
:100340001F1F1F1F1F1F1F1F1F2F4C1F1F1F271F78
:100350001F1F1F1F1F541F1F1F1F1F1F1F34441F3E
:100360003C000321002001F0D5FE484B52221A70B8
:100370009DF807204649032001F058FD03B030BD29
:100380000721002001F0C6FE404B47221A70EFE71C
:100390000521002001F0BEFEEAE70221002001F065
:1003A000B9FE3A4B56221A70E2E70621002001F00E
:1003B000B1FE364B59221A70DAE70121002001F014
:1003C000A9FE324B57221A70D2E70421002001F017
:1003D000A1FE2E4B43221A70CAE70021084601F005
:1003E00099FE2A4B4E221A70C2E72A4A1378B3FAB2
:1003F00083F35B091370BBE7002001F01DFFFF28AA
:10040000B6D0002001F02CFFFF28B1D0002001F071
:100410001DFFFF28ACD0002001F00EFF0446002095
:1004200001F014FF0546002001F01AFF43006A00A6
:1004300061005BB252B249B2002001F0E7FE97E7DB
:10044000002001F0F9FE012814D9002001F0F4FE8B
:100450000446002001F0FAFE0546002001F000FFEE
:1004600040F3470345F3470244F34701002001F0FE
:10047000CDFE7DE7002001F0F3FE0128E5D8002045
:1004800001F0E4FE0128E0D872E700BF0000001090
:10049000A037001AF000001008B501F053FC4FF42B
:1004A000E131032001F0D0FB2249032001F0BEFC22
:1004B0002149032001F0BAFC2049032001F0B6FCD9
:1004C0001F49032001F0B2FC1E49032001F0AEFCDD
:1004D0001D49032001F0AAFC1C49032001F0A6FCE1
:1004E0001B49032001F0A2FC1A49032001F09EFCE5
:1004F0001949032001F09AFC2A23292228210020EF
:1005000001F0E2FD0023154A1946032001F012FB19
:100510000121032001F0C6FA114B1B78002BFBD000
:10052000002001F0A7FE4FF4FA70002101F044FC16
:10053000F2E700BFA837001AD437001AE037001AD4
:10054000EC37001AF837001A0838001A1838001A61
:100550002838001A3838001A4438001A1103001AD3
:10056000F00000107047000010B572B6194B1A4A1F
:10057000C3F80021194AC3F80421002305E0184AF2
:100580004FF0FF3142F823100133072BF7D962B641
:10059000144B07E003F10C049A6859681868FFF7D8
:1005A000F4FD2346104A9342F4D306E01C465968F2
:1005B00054F8080BFFF7F8FD23460C4A9342F5D395
:1005C00000F04CFF02F018FBFFF7CCFFFFF764FFD1
:1005D00030BFFDE7003005400010DF10FFF7DF01FE
:1005E00080E200E01401001A5001001A7801001A9C
:1005F00070477047092303604FF0FF30704758235E
:1006000003604FF0FF307047022904D909230360CB
:100610004FF0FF30704701207047582303604FF0C0
:10062000FF3070472DE9F041064602291CD81746D5
:100630001D460024AC4211D200F035F9B0F1FF3F65
:10064000F8D004F1010838550D2803D00A2801D04C
:100650004446EFE700F027F9404603E013233360F8
:100660004FF0FF30BDE8F081132303604FF0FF30FF
:10067000F8E702290CD870B516461D46002403E0A1
:10068000305D00F00BF90134AC42F9D3284670BD5F
:10069000132303604FF0FF3070470000054B1B68C9
:1006A00023B1044B1868014419607047014B024A9A
:1006B0001A60F6E7F4000010C00100100022052ABD
:1006C0001BD810B50D4B13F812E003EB420393F85F
:1006D00001C00B4B0EF5006453F82410012000FA02
:1006E0000CF0014343F8241003EB4E13002103F8F0
:1006F0000C100132052AE5D910BD70476438001A84
:1007000000400F400023032B19D810B40C4911F8F6
:10071000132001EB430191F801C00A4C02F500627D
:1007200054F82210012000FA0CF021EA000144F8EC
:1007300022100133032BE9D95DF8044B7047704751
:100740005C38001A00400F400023082B19D810B461
:100750000C4911F8132001EB430191F801C00A4C38
:1007600002F5006254F82210012000FA0CF021EA90
:10077000000144F822100133082BE9D95DF8044B3D
:10078000704770477038001A00400F4010B582B0B3
:10079000084C6946204600F005F9074A694620469C
:1007A00000F020F900226946204600F034F902B03A
:1007B00010BD00BF00300E40801A060010B50B4C73
:1007C000204600F08DFC636823F004036360236817
:1007D00023F0FF0343F0070323600549204600F0A0
:1007E0005EFC636843F00203636010BD00500C4080
:1007F000A086010008B5002000F000FC044B40F684
:100800000802C3F8842C0349002000F00BFC08BD4B
:100810000060084040420F0010B5074C204600F031
:1008200065FD4FF4E131204600F0AAFD0323E360AB
:100830000123E36510BD00BF00100C40034B5B6952
:1008400013F0200FFAD0014B1860704700100C40D5
:10085000054B5B6913F0010F03D0034B1868C0B25E
:1008600070474FF0FF30704700100C4008B5FFF79D
:10087000D3FF094800F0B0FBFFF766FFFFF786FFE4
:10088000FFF79CFFFFF7B6FFFFF718FFFFF73AFFF0
:1008900000F0C8F808BD00BF00400F4008B5C0B266
:1008A000FFF7CCFF08BD08B5FFF7D2FF08BD08B5BC
:1008B000FFF7B2FF08BD000000230CE0074A02EB7F
:1008C000830112F823C04A78488802EB4C1204498D
:1008D00041F8220001331C2BF0D970478C38001AE4
:1008E0000060084010B5174AD2F8203123F4704355
:1008F00043F41043C2F82031D2F8243123F470437A
:1009000043F41043C2F8243101220F49062000F0BD
:1009100003FC00244CB10B4B5A6822F00C025A60C5
:100920005A6842F003025A6010BD084800EB840187
:1009300001238A78497810F8240000F0A7FA0134DE
:10094000E8E700BF0030044000CB280C8838001ACC
:1009500008B5FFF7B1FFFFF7C5FF08BD034B98428D
:1009600001D0032070470420704700BF00400E40B4
:1009700070B50D4614461E46FFF7F0FF00F006FB6B
:1009800055B106FB04F404EB40006400B0FBF4F046
:10099000C0B20138C0B270BD04EB840304EB430461
:1009A000F1E7000038B505460C46FFF7D7FF0123F5
:1009B0001A46194600F0B2FA0021E960084A22609E
:1009C000217161710B232846FFF7D2FF000240F42A
:1009D000001023795B0403F4602303432B6038BDCC
:1009E000801A060070B505460E46046824F46F248C
:1009F00024F470640A600B79C3F10B03DBB249790C
:100A0000FFF7B6FF44EA002433795B0403F4602364
:100A100023432B6070BD08B50A710A68FFF7E2FF37
:100A200008BD000008B5692000F0B0FA014B18605D
:100A300008BD00BFF800001070B586460B6813F0C3
:100A4000800F02D023F040030B60754601243CE088
:100A50004B6902FB03F3B3FBF4F31EE01846BEEB55
:100A6000000628D4B54207D98C600CF10105CD6091
:100A70000A618861CB6135460132B2F5807F1CDCAA
:100A80000E6816F0400FE3D00CF1010302FA03F3F5
:100A9000486900FB03F3B3FBF4F30F488342EBD93F
:100AA0000E48834209D816F0800FD7D10CF101000F
:100AB00023FA00F0D3E77642D4E70CF1010CBCF145
:100AC000030F01DC0122D8E70134042C02DC4FF0D3
:100AD000000CF4E770BD00BFFF5E4C0900D012139C
:100AE000F0B59DB005460C466022002101A802F039
:100AF000ABF8802301936369069323798DF808305E
:100B000001A92846FFF798FF079BAB422AD0EB1AB2
:100B100031D41E461993119B23F04003119363694E
:100B2000169323798DF8483011A92846FFF784FFE2
:100B3000179BAB4221D0EB1A27D41F461B932B4B9C
:100B40009D4224D90F9BED1A34D41A95AE423BDC5A
:100B5000BE4231DC01AD0FCD0FC495E80F0084E833
:100B60000F0006E001AD0FCD0FC495E80F0084E83B
:100B70000F001DB0F0BD5B42CBE711AD0FCD0FC430
:100B800095E80F0084E80F00F3E75B42D5E74023C8
:100B9000099363690E9309A92846FFF74DFF0F9B40
:100BA000AB42CFD109AD0FCD0FC495E80F0084E85B
:100BB0000F00DEE76D42C8E711AD0FCD0FC495E819
:100BC0000F0084E80F00D4E7AF4207DB09AD0FCD7B
:100BD0000FC495E80F0084E80F00CAE711AD0FCDF0
:100BE0000FC495E80F0084E80F00C2E780778E06F7
:100BF000844600231C201C2820D110B402E00133BD
:100C00001C2818D103EB43010D4A02EB4102117974
:100C1000814210D003EB4302094C34F812206245A4
:100C2000EDD803EB4304064A02EB440252886245C6
:100C3000E5D30846E4E75DF8044B7047704700BF12
:100C40000839001A82B04FF47A7301930D4A936900
:100C500023F0020192698A4201D00A4A916123F08D
:100C60000303094A1168094A914201D943F0040378
:100C7000044A9361019B5A1E0192002BFAD102B0E3
:100C8000704700BF000005408438001AFF2C310176
:100C90001230054B53F8200010F0010F02D1C0F3C1
:100CA00004607047112070470000054000F11202F7
:100CB000034B53F82220034B185C00EA9200704764
:100CC000000005400039001A08B510280AD8DFE8EE
:100CD00000F0440B0D18210924272A2D090930346E
:100CE000383C4000002008BD1E48FCE71E4BD3F8EE
:100CF0002C3103F00703042B01D01C48F3E700203C
:100D0000F1E7194BD3F82C3103F00703042B27D05C
:100D10001648E8E7164B1868E5E7164B1868E2E74F
:100D2000154B1868DFE7144B5868DCE700F068F8EB
:100D3000D9E7002100F098F8D5E7012100F094F8F8
:100D4000D1E7022100F090F8CDE7032100F08CF804
:100D5000C9E7042100F088F8C5E74FF40040C2E776
:100D60000648C0E7001BB7000030044040787D0112
:100D70005838001A8438001AFC00001080F0FA027B
:100D800038B505460C460879FFF79EFF6061194BA0
:100D90002B44194A934221D818B38023236000239F
:100DA000A360E360B5FBF0F32361144A954203D9D5
:100DB00000FB03F3AB4207D021462846FFF790FE25
:100DC000A3688BB1013BA360236983B1E2680AB1D8
:100DD000013AE260013B2361002038BD4FF0FF3053
:100DE000FBE74FF0FF30F8E74FF0FF30F5E74FF04B
:100DF000FF30F2E7103A6BFF1005940BFF5E4C09D1
:100E000030B583B0164D6C6CC4F30360FFF75CFF24
:100E10008446144B0193286C10F001001DD0C4F3DC
:100E20000742C4F30133C4F30121C4F3801001323B
:100E300001330831694411F8041C14F0800F08D103
:100E400038B94900B2FBF1F2BCFBF3F002FB00F051
:100E500003E0BCFBF3F302FB03F003B030BD00BFC3
:100E6000000005400102040838B50C460846FFF7AB
:100E70000FFF05462046FFF719FF04462846FFF7F7
:100E800023FF0134B0FBF4F038BD000030B400F1B2
:100E9000160C4FEA8C0C0CF1804C0CF5A02CDCF8F5
:100EA00004401B2813D811291AD00E4D25400AB131
:100EB00045F400650BB145F0010545EA01651630C2
:100EC000800000F1804000F5A020456008E044F07B
:100ED00001041630800000F1804000F5A02044603D
:100EE00030BC7047FEF7FFE01B280DD800F1160359
:100EF0009B0003F1804303F5A023586810F0010F15
:100F000004D1C0F30460704711207047112070476E
:100F100008B5FFF7E9FFFFF7D7FE08BD71B901215A
:100F20000AB141F00401022B0AD0B0F5A17F0AD327
:100F3000A0F59170064B43F8301070470321EFE79E
:100F400041F02001F1E72030024B43F830107047A8
:100F50000020054000100540B0F5A17F09D3094AE3
:100F6000A0F5917052F8303043F0010342F8303070
:100F70007047054A203052F8303043F0010342F800
:100F800030307047002005400010054010B5034682
:100F9000B0F5A17F08D3A0F591720D4951F8324008
:100FA00014F0010006D110BD00F12002094951F8EA
:100FB0003240F5E71846FFF71BFEFFF7A9FF14F0D4
:100FC000E00F03D10123B0FBF3F0ECE70223FAE7D3
:100FD000002005400010054070470000012909D19C
:100FE000C0EBC000044B03EB80031A69137DDBB236
:100FF000042BFBD0704700BF0400001070B50446FE
:10100000074EC500C0EBC00306EB83039888FFF7CB
:10101000A3FF2D1B56F825306C229A6170BD00BFCE
:10102000040000102DE9F041044688460B4DC6002F
:10103000C0EBC0039F0005EB83039888FFF7A6FF72
:10104000B0FBF8F1EB594A081A61361B55F8263007
:101050001A69891A5961BDE8F08100BF04000010C7
:10106000034B984201D083207047A520704700BFF2
:1010700000500C40044B984202D040F202207047CE
:101080004FF4F170704700BF00500C40036823F428
:101090007F43090289B2194301600261704738B584
:1010A00005460C46FFF7E6FFFFF770FF02224FF000
:1010B000FF33002100E06146A3420DD901F1010C8C
:1010C00001FB0223B0FBF3F39C42F5D2BCF1FF0F0E
:1010D000F1D902320021EFE72846FFF7D7FF38BDEC
:1010E00010B50446FFF7BCFFFFF736FF2046FFF7B9
:1010F000C1FFFFF731FF636823F0040363602368D7
:1011000023F0FF0343F00703236002492046FFF763
:10111000C6FF10BDA086010070B58AB005460E4618
:1011200014464CF250330993062818D000230122AC
:1011300029460420FFF7AAFE4A4A536C43F00103F4
:1011400053648DF8085001A93046FFF719FE464B4D
:101150009E4216D9019B13F0400F03D0FEE7FFF724
:1011600071FDE3E713F0800F05D023F080030193B6
:101170000026012507E0049B013304930126002586
:1011800001E0002635469DF80820019B43EA0263F2
:10119000059A43EA0243039A43EA0233049A43EA74
:1011A000022343F400632F4A53642E4B1B6C13F04D
:1011B000010FFAD00023012209210420FFF766FE67
:1011C00005B34CF250330993099B5A1E0992002B28
:1011D000FAD1019B43F0800301939DF8082043EA74
:1011E0000263059A43EA0243039A43EA0233049AEC
:1011F00043EA022343F400631A4A5364002C2ED1BD
:101200000AB070BD002EF9D04CF250330993099BFF
:101210005A1E0992002BFAD1049A013A04929DF8C1
:101220000810019B43EA0163059943EA01430399CE
:1012300043EA013343EA022343F40063094A536457
:10124000DCE70A4800EB8401CB788A78497810F80B
:101250002400FFF71BFE0134112CF2D9D0E7002443
:10126000FAE700BF0000054080778E067439001A47
:10127000094B98420BD0A3F58053984209D0A3F5AF
:101280007833984201D08420704785207047A4208D
:101290007047A320704700BF00400C4008B5FFF71F
:1012A000E7FFFFF759FE08BD4268002343600123B2
:1012B0008360022343608368002BFCD14260704747
:1012C000094B98420BD003F58053984209D0A3F5FF
:1012D0008023984201D000207047012070470220EF
:1012E00070470320704700BF00100C4030B583B03A
:1012F0000446FFF7E5FF01231A4619460E4D35F85F
:101300001000FFF70BFE0723A3600023E365636073
:10131000E3602362E36463652365084B9C4206D067
:101320000323E3601023A362019B03B030BD0023BD
:101330002361A3690193F3E7C439001A0020084030
:1013400038B505460C46FFF7BBFF0C4B33F81000D1
:10135000FFF71CFE2101B0FBF1F1CAB2EB6843F0CC
:101360008003EB602A60C1F307236B60EB6823F016
:101370008003EB60B0FBF1F0000938BDBC39001A06
:101380002DE9F04F83B001908846FFF799FF324B6B
:1013900033F81000FFF7FAFD06464FF0FF3701243F
:1013A0004FF0000BA246D9462AE042424B1C17E000
:1013B0000AB31746AB46A24699460135AC421ED940
:1013C00031093007A4FB000C621908FB02F200236C
:1013D00004FB01C100F088FF02460B460028E4DB55
:1013E0009742EAD3002BE8D0190CE6D1022BDFD8C4
:1013F000002DDDD0E1E71746AB46A2469946013401
:101400001FB10F2C01D80025D8E7B9F1000F1ED06D
:101410000199CB6843F08003CB605FFA89F30B60DE
:10142000C9F307234B60CB6823F08003CB604FEAFE
:101430000A13DBB20BF00F0213438B6233090AFB72
:1014400003F30AEB0B0209FB02F2B3FBF2F9484685
:1014500003B0BDE8F08F00BFBC39001A08B50B4AD5
:101460000B4B9A6003F500731B6C03F47F63202B16
:1014700004D0FFF76DFAFFF7F9F908BD044AD2F876
:10148000883043F47003C2F88830F2E70000001A95
:1014900000ED00E0044B1860044A136843F00103B8
:1014A00013600120704700BF3C000010001000E0F6
:1014B00010B40C4C00EB800004EB000C20560870BC
:1014C0009CF9011011709CF902201A709CF90320FC
:1014D000019B1A709CF90420029B1A705DF8044B62
:1014E000704700BFCC39001A10F1020F00F0C6801F
:1014F00030B585B00C46B0F1FF3F00F0C18000234D
:101500008DF80F308DF80E308DF80D308DF80C30D1
:101510008DF80B300DF10B03019303AB00930DF12C
:101520000D030DF10E020DF10F01FFF7C1FF052CA8
:1015300000F2A980DFE804F00880264462035348E3
:10154000FFF74AFD01209CE09DF80F109DF80E303A
:101550009DF80D2042F0D00203EB41134C4941F8B5
:1015600023209DF80C309DF90B10012000FA01F1A9
:10157000464C03F5006354F8232022EA010244F8A4
:1015800023207EE09DF80F109DF80E309DF80D2071
:1015900042F0C00203EB41133D4941F823209DF87E
:1015A0000C309DF90B10012000FA01F1374C03F5C6
:1015B000006354F8232022EA010244F8232060E06B
:1015C0009DF80F109DF80E309DF80D2042F0D802C6
:1015D00003EB41132E4941F823209DF80C309DF96F
:1015E0000B10012000FA01F1284C03F5006354F8B8
:1015F000232022EA010244F8232042E09DF80F1044
:101600009DF80E309DF80D2042F0C80203EB411307
:101610001F4941F823209DF80C309DF90B10012043
:1016200000FA01F1194C03F5006354F8232022EA73
:10163000010244F8232024E09DF80F109DF80E309D
:101640009DF80D2042F0D00203EB4113104941F800
:1016500023209DF80C009DF90B1001228A400B4BB2
:1016600000F5006C53F82C502A4343F82C20C9B2E3
:1016700003EB401300225A54204602E0002070473A
:10168000002005B030BD0020FBE700BF00400F4048
:101690000060084010F1020F2DD010B584B00C4648
:1016A000B0F1FF3F29D000238DF80F308DF80E30B8
:1016B0008DF80D308DF80C308DF80B300DF10B03DB
:1016C000019303AB00930DF10D030DF10E020DF12B
:1016D0000F01FFF7EDFE9DF80C309DF80B20211E49
:1016E00018BF01215B0103F1402303F570239954D6
:1016F000012004B010BD002070470020F9E7000071
:10170000014BD3E9000170470801001020B14FF0F0
:10171000E02307221A6170474FF0E02300221A618C
:101720007047000010B550EA010328D0421E41F175
:10173000FF33322A73F1000326D2144B186059602C
:10174000134B1C68A4FB000C4FF47A72002304FBBB
:1017500001C100F0C9FD0138B0F1807F0AD24FF01D
:10176000E02358610B4AE02182F8231000229A619D
:1017700007221A610120FFF7C9FF012010BD0020D8
:10178000FFF7C4FF0020F9E70020F7E74000001052
:10179000F800001000ED00E008B5074A1368516832
:1017A000013341F1000113605160044B1B6813B118
:1017B000034A1068984708BD080100101001001086
:1017C00004010010FEE770472DE9F041002969D0BF
:1017D000044616460F46384B00EB400203EB8208E6
:1017E00053F822502846FFF759FD98F8042002F0DC
:1017F0001F0352090120984002F140012F4B43F88A
:10180000210002F154032D4951F823301842F8D039
:101810002846FFF749FD2301294AD6506B6943F05A
:1018200001036B61AF616B6943F002036B616B682D
:1018300043F001036B6004EB44021F4B03EB820394
:101840009A6853B2002B30DB03F1604303F5614328
:10185000C02283F8002304EB4402174B03EB8203FE
:101860009A6853B2002B08DB02F01F025B090121CA
:1018700001FA02F2134941F8232004EB44040E4B11
:1018800003EB84039A6853B2002B09DB02F01F02BA
:101890005B09012101FA02F260330A4941F8232071
:1018A000BDE8F0810020FFF78DFF02F00F02064B2C
:1018B0001344C0221A76CEE7B43A001A003005402D
:1018C0004800001000E100E0FCEC00E0CC2303FB4A
:1018D00000F0704738B5002401E00134E4B2032C75
:1018E00012D865B2094B1A6804F00F0101238B402E
:1018F0001A42F2D0064B53F82430002098470123B7
:10190000AB40024A1360E8E738BD00BF0040084022
:101910004800001038B5002401E00134E4B2032C83
:1019200013D865B2094B1A6804F00F0101238B40EC
:101930001A42F2D0231D064A52F82330002098475D
:101940000123AB40014A1360E7E738BD005008406F
:101950004800001038B5002401E00134E4B2032C43
:1019600014D865B20A4B1A6804F00F0101238B40AA
:101970001A42F2D004F10803064A52F8233000203C
:1019800098470123AB40024A1360E6E738BD00BF29
:1019900000300C404800001038B5002401E001344C
:1019A000E4B2032C14D865B20A4B1A6804F00F0194
:1019B00001238B401A42F2D004F10C03064A52F87C
:1019C0002330002098470123AB40024A1360E6E72A
:1019D00038BD00BF00400C404800001070B5044600
:1019E00000EB4002224B53F822506B69DEB213F039
:1019F000010F0AD028B91F4B1B6813B11E4A10688B
:101A00009847032C14D0052C1AD016F0200F0ED0B6
:101A10006B6813F0020F0AD02CB9184B1B6813B176
:101A2000174A10689847032C12D0052C18D070BDA7
:101A3000144B1B68002BE6D0134A10689847E2E766
:101A4000124B1B68002BE0D0114A10689847DCE766
:101A5000104B1B68002BE8D00F4A10689847E4E74A
:101A60000E4B1B68002BE2D00D4A10689847DEE74A
:101A7000E43A001A14010010180100102C010010A3
:101A8000300100101C010010200100102401001082
:101A90002801001034010010380100103C01001032
:101AA0004001001041B300EB40021F4B03EB8203E7
:101AB00093F90A30002B18DB03F1604303F561430F
:101AC000A02283F8002300EB4000174B03EB8003B8
:101AD00093F90A30002B25DB03F01F015B0901227B
:101AE0008A40124941F82320704703F00F03104A3F
:101AF0001A44A0231376E6E700EB40000A4B03EB01
:101B0000800393F90A30002B0CDB03F01F015B0903
:101B100001228A402033054941F82320BFF34F8F2B
:101B2000BFF36F8F704700BFE43A001A00E100E096
:101B3000FCEC00E011B1012923D0704782B10128EB
:101B40000FD9C11EC9B2012910D9052813D0052308
:101B500000EB4000194A52F8202051680B435360B3
:101B6000704717490A6017490B60EAE716490A608F
:101B700016490B60E9E716490A60164A1360052307
:101B8000E6E7002AECD0012807D9C11EC9B2012915
:101B900008D905280BD00223DAE70F490A600F495C
:101BA0000B60F2E70E490A600E490B60F1E70E493F
:101BB0000A600E4A13600223CAE700BFE43A001A23
:101BC00014010010180100101C0100102001001069
:101BD00024010010280100102C0100103001001019
:101BE00034010010380100103C01001040010010C9
:101BF00000EB4000034B53F82030586900F001001F
:101C0000704700BFE43A001A00EB4000034B53F862
:101C10002030586900F02000704700BFE43A001AF5
:101C200000EB4000024B53F820301868C0B27047F8
:101C3000E43A001A00EB4000024B53F820301960E0
:101C4000704700BFE43A001A2DE9F843044689467C
:101C5000194D00EB400305EB830655F82370384619
:101C6000FFF744FB49463846FFF76AFB0723BB6092
:101C70003B680123FB6530797379B27942F0180231
:101C80000E4903EB401341F82320F079337A727A3E
:101C900042F0D00203EB401341F82320012C01D085
:101CA000BDE8F883064AD36C43F03003D3641A22AC
:101CB000C1F80823F4E700BFE43A001A00600840C6
:101CC0000010084038B505460C46FFF791FF00B9F3
:101CD00038BD2846FFF7A4FF20700120F8E738B58B
:101CE00004460D462046FFF78FFF0028FAD029460C
:101CF0002046FFF79FFF38BDF8B507460E4615464C
:101D0000002404E0315D3846FFF7E9FF0134AC42BE
:101D1000F8D3F8BD08B50320FFF760FE08BD08B58D
:101D20000520FFF75BFE08BD08B5044B1B681B6868
:101D3000DB68034A1068984708BD00BF48010010DF
:101D40004401001008B5FEF76DFE1A4B1868FFF746
:101D5000A1FB01200021FFF7E5FC05210020FFF792
:101D6000C3FB00212420FFF7BFFB00212520FFF744
:101D7000BBFB00212620FFF7B7FB00212720FFF740
:101D8000B3FB01212820FFF7AFFB01212920FFF73A
:101D9000ABFB01212A20FFF7A7FB01212B20FFF736
:101DA000A3FB01212C20FFF79FFB01212D20FFF732
:101DB0009BFB08BDF80000102DE9F84380460F4654
:101DC000FFF79EFC05460E46FFF79AFC441B61EBAD
:101DD0000609064BD3E900234046394600F084FA51
:101DE000844279EB0101EFD3BDE8F8834000001095
:101DF00010B51446C0B2FFF77FFF204610BD70B586
:101E000082B006460C4615466DB10DF10701F0B2E1
:101E1000FFF758FF0028F7D021469DF8073001F85A
:101E2000013B0C46F0E7002002B070BD0EB430B5A7
:101E300084B0054607AB53F8044B03930D4B03F1F5
:101E4000080292E803008DE803000CCB0A492846FB
:101E500000F096FE0546039A214601F0FDF804467F
:101E6000284600F005FC204604B0BDE8304003B031
:101E7000704700BF303B001A2C3B001A00EB800279
:101E800000EB4202294B134493F90330002B0ADB89
:101E9000192B10DD00EB800200EB4202234B1344B0
:101EA0001922DA7007E000EB800200EB42021F4BC0
:101EB00013440022DA7000EB800200EB42021B4B5D
:101EC000134493F90430002B0ADB192B10DD00EBCF
:101ED000800200EB4202154B134419221A7107E0ED
:101EE00000EB800200EB4202104B134400221A71F7
:101EF00000EB800200EB42020C4B134493F90530D7
:101F0000002B0ADB192B07DD00EB800300EB4300FD
:101F1000064B034419225A71704700EB800200EB14
:101F20004202024B134400225A7170474C010010C8
:101F300010B5124B1C7804B110BD4FF47A70FFF746
:101F4000C5FC01460E4A0320FFF73EFC10E00D4899
:101F500004EB840104EB41014318002242545A70FF
:101F60009A70DA701A715A7164229A720134E4B26A
:101F7000082CECD9014B01221A70DDE7AF010010EB
:101F8000891F001A4C01001038B5002412E000210E
:101F900040B2FFF77FFB21E005EB850205EB420233
:101FA000474B1344002193F90100FFF773FB21E035
:101FB0000134E4B2082C35D8254604EB840304EB45
:101FC00043033F4AD05C0028F2D01A463C4B1344EE
:101FD00093F903203B4B1B689A42D8D005EB85024E
:101FE00005EB4202364B134493F90420354B1B6832
:101FF0009A42D1D005EB850205EB4202304B1344E7
:1020000093F905202F4B1B689A42D1D105EB85032C
:1020100005EB43052A4B2B44002193F90200FFF7FF
:1020200039FBC5E7274A136801331360192B44D0E5
:1020300038BD012140B2FFF72DFB22E005EB850200
:1020400005EB42021E4B1344012193F90100FFF7F7
:1020500021FB20E01B4B00221A600134E4B2082C63
:10206000E6D8254604EB840304EB4303144AD05C12
:102070000028F2D01A46124B134493F90330002B78
:10208000D7DC05EB850205EB42020D4B134493F9B7
:102090000430002BD2DC05EB850205EB4202084B35
:1020A000134493F90530002BD4DD054B1344012173
:1020B00093F90200FFF7EEFACCE70024CFE700BF68
:1020C0004C010010B00100102DE9F04104460E460D
:1020D00090461F46FFF72CFF0D4B04EB840204EBE8
:1020E00042041D191E5585F80180AF70012170B2A0
:1020F000FFF7FAF9012195F90100FFF7F5F9012140
:1021000095F90200FFF7F0F90120BDE8F08100BF6A
:102110004C01001007296BD8DFE801F05F04174776
:10212000232F3B5300EB800200EB4202364B13445B
:1021300019225A71DA701A7100EB800300EB430028
:10214000314B034400225A72704700EB800200EBCF
:1021500042022D4B134419225A71DA7000221A716F
:10216000EAE700EB800200EB4202274B13441922FE
:102170005A710021D9701A71DEE700EB800200EB82
:102180004202214B134419225A710022DA701A714B
:10219000D2E700EB800200EB42021B4B134400220B
:1021A0005A711922DA701A71C6E700EB800200EB4F
:1021B0004202154B134400225A711921D9701A7129
:1021C000BAE700EB800200EB42020F4B13440022FF
:1021D0005A71DA7019221A71AEE700EB800200EB37
:1021E0004202094B134400225A71DA701A71A3E7B4
:1021F00000EB800200EB4202034B134400225A71B1
:10220000DA701A7198E700BF4C01001010B500EBAE
:10221000800400EB440C074CA4448CF803108CF8A9
:1022200004208CF8053000238CF80930FFF726FED7
:1022300010BD00BF4C01001000EB800300EB430019
:10224000014B0344D87870474C01001000EB800329
:1022500000EB4300014B0344187970474C01001018
:1022600000EB800300EB4300014B034458797047B7
:102270004C01001000EB800200EB4202194B1344AA
:102280005B7AD3B91146174A0A4492F90310917147
:1022900092F90410D17192F9051011720021D170D8
:1022A00011715171B3FA83F35B0900EB800200EB0B
:1022B00042000C4A02445372704700EB800100EB6D
:1022C0004101084A0A4492F90610D17092F90710A8
:1022D000117192F90810517100219171D17111722F
:1022E000E0E700BF4C01001053B94AB9002908BF0C
:1022F00000281CBF4FF0FF314FF0FF3000F04AB90B
:10230000ADF1080C6DE904CE00F006F8DDF804E04C
:10231000DDE9022304B070472DE9F0478C468E4674
:10232000089E154604461946002B40F0AF807245C2
:10233000B2FA82F743D94FB1C7F120030EFA07FC76
:1023400020FA03F3BD4043EA0C0CBC404FEA154EA3
:10235000A8B2BCFBFEF8230C0EFB18CC08FB00F95E
:1023600043EA0C43994528D9EB1808F1FF3204D20F
:10237000994502D9A8F102022B44A3EB0903B3FB50
:10238000FEFCA4B20EFB1C330CFB00F044EA034439
:10239000A04279D92C190CF1FF3304D2A04202D902
:1023A000ACF102032C44241A43EA02401EB1FC4063
:1023B000002334607360BDE8F0874246DDE702B970
:1023C000FFDEE7B9AEEB020301214FEA154EA8B2DA
:1023D000B3FBFEFC220C0EFB1C330CFB00F842EAA4
:1023E000034398454ED9EB180CF1FF3204D29845BF
:1023F00002D9ACF102022B44A3EB0803BFE7C7F1FB
:1024000020012EFA01F3BD400EFA07FE20FA01F179
:1024100041EA0E014FEA154EAAB2B3FBFEFC0EFBD9
:102420001C300B0C0CFB02F843EA0043984504FAFD
:1024300007F423D9EB180CF1FF3004D2984502D9E8
:10244000ACF102002B44A3EB0803B3FBFEFC0CFB36
:1024500002F80EFB1C328BB243EA024398450FD9B7
:10246000EB180CF1FF3104D2984502D9ACF102010E
:102470002B44A3EB080341EA0041A6E76046E2E7EC
:102480006146F6E76246B7E763468CE7734505D9D0
:102490000EB1C6E9000E002108468CE7B3FA83F7B7
:1024A00087B9734501D382420AD8841A6EEB0303BD
:1024B00001209C46002E6AD0C6E9004C00217AE734
:1024C0003846F7E7C7F1200CBB4022FA0CF41C4356
:1024D00020FA0CF12EFA0CF30EFA07FE41EA0E0177
:1024E0004FEA144900FA07F5B3FBF9F81FFA84FE26
:1024F00009FB18300B0C08FB0EFA43EA00439A451F
:1025000002FA07F23FD9E31808F1FF3004D29A45E6
:1025100002D9A8F102002344A3EB0A0389B2B3FB5A
:10252000F9F809FB183308FB0EFE41EA03418E451A
:102530002BD9611808F1FF3304D28E4502D9A8F1D6
:102540000203214443EA0040A0FB0298A1EB0E01E4
:102550004145CE46434602D306D14D4504D2B9EBA0
:10256000020E68EB040301388EB1B5EB0E0261EB8D
:10257000030101FA0CFC22FA07F34CEA0303F940C9
:10258000C6E900319AE74046C6E74346DAE73146F6
:1025900011E70000704700BF70B505460C4611B941
:1025A0000026304670BD18B183690BB900F082F97E
:1025B0002C4B9C4214D16C68636ED80705D4A38958
:1025C000990502D4A06D00F03DFBB4F90C308BB935
:1025D000666E16F00106E3D1A06D00F034FBE0E773
:1025E000214B9C4201D1AC68E6E7204B9C4208BFDE
:1025F000EC68E1E72146284600F042F8236B0646E6
:1026000033B1216A284698470028B8BF4FF0FF36FB
:10261000A3891A0603D52169284600F01DFB616BCA
:1026200041B104F14403994202D0284600F014FB62
:1026300000236363A16C21B1284600F00DFB002349
:10264000A36400F01FF90023A381636EDB0702D4AB
:10265000A06D00F0F8FAA06D00F0F3FA00F018F9A0
:102660009FE700BF603B001A803B001A403B001A06
:10267000024B01461868FFF78FBF00BF88000010AB
:102680008A892DE9F041054610070C4658D44B685D
:10269000002B05DC0B6C002B02DC0020BDE8F08178
:1026A000E66A002EF9D0002312F480522F682B60C6
:1026B00032D0606DA3895A0705D56368C01A636B71
:1026C0000BB1236CC01A00230246E66A216A284631
:1026D000B047431CA38906D129681D292CD82A4A52
:1026E000CA40D60728D500226260D9042269226038
:1026F00004D5421C01D12B6803B96065616B2F6062
:102700000029CAD004F14403994202D0284600F0BF
:10271000A3FA00206063C1E7216A01232846B0477D
:10272000411CC7D12B68002BC4D01D2B01D0162B08
:1027300001D12F60B1E7A38943F04003A381ADE746
:102740000F69002FA9D093070E6808BF4B690F606F
:1027500018BF0023A6EB07088B60B8F1000F9CDDC3
:10276000216AA66A43463A462846B047002806DC56
:10277000A38943F04003A3814FF0FF308EE7074465
:10278000A8EB0008E9E700BF0100402038B50B695D
:1027900005460C4613B90025284638BD18B1836993
:1027A0000BB900F087F8144B9C421BD16C68B4F94C
:1027B0000C30002BEFD0626ED00704D4990502D400
:1027C000A06D00F03FFA28462146FFF759FF636EDF
:1027D000DA070546E0D4A3899B05DDD4A06D00F09F
:1027E00032FAD9E7054B9C4201D1AC68DFE7044BD4
:1027F0009C4208BFEC68DAE7603B001A803B001A95
:10280000403B001A002310B50446C0E90033C0E97C
:102810000433836081814366C28183611946082243
:102820005C3000F011FA054B6362054BA362054B67
:10283000E362054B2462236310BD00BF6D30001AB4
:102840008F30001AC730001AEB30001A014900F02F
:10285000B3B900BF8D27001A70B568224D1E5543CD
:102860000E4605F1740100F043FA044640B1002120
:10287000C0E900160C30A06005F1680200F0E4F930
:10288000204670BD014800F0DDB900BFB501001061
:10289000014800F0D8B900BFB5010010014800F0B0
:1028A000D1B900BFB6010010014800F0CCB900BF9B
:1028B000B601001010B50446FFF7F0FFA3691BB185
:1028C000BDE81040FFF7F0BFC4E912332365134B96
:1028D000134A1B68A262A34204BF0123A3612046DE
:1028E00000F020F86060204600F01CF8A060204650
:1028F00000F018F80022E06004216068FFF782FF12
:10290000A06801220921FFF77DFFE0680222122161
:10291000FFF778FF0123A361D2E700BFA03B001AB5
:102920004D28001AF8B50746FFF7ACFF1E4B1E688E
:10293000B36913B93046FFF7BDFF4836D6E9013415
:10294000013B03D533680BB33668F7E7B4F90C5095
:10295000D5B9164BE36004F15800656600F070F9D4
:10296000FFF796FFC4E90155C4E904552560A56148
:102970000822294604F15C0000F066F9C4E90D550F
:10298000C4E912552046F8BD6834D9E70421384619
:10299000FFF762FF044630600028D5D1FFF778FFCB
:1029A0000C233B60EEE700BFA03B001A0100FFFFD5
:1029B0002DE9F0411F464B6816469A89D205054617
:1029C0000C4607D5D3F82C80B8F1000F02D00223B3
:1029D0000022C04700F04EFC002303603A46E36843
:1029E000206831469847041E07DA00F043FC03686C
:1029F0001BB100F03FFC03682B602046BDE8F0816E
:102A000070B54C6906460D4684B100F033FC0023D6
:102A100003606B6928689847041E07DA00F02AFCF7
:102A200003681BB100F026FC03683360304629467A
:102A300000F012F9204670BD73B50C461E46019297
:102A4000054600F017FC0023036032462369206826
:102A500001A99847002807DA00F00CFC03681BB1B5
:102A600000F008FC03682B60019802B070BD37B518
:102A70000C4601920093054600F0FCFB0023036026
:102A8000DDE90021A36820689847041E07DA00F0FA
:102A9000F1FB03681BB100F0EDFB03682B602046DF
:102AA00003B030BD82B02DE9F3478946114601AA33
:102AB000DDE90CA705460B93984600F0E1FB0646BE
:102AC00030B90024204602B0BDE8F04702B070479C
:102AD00010F0140F02D0B8F1000F05D016F0180F47
:102AE00005D0BAF1000F02D116232B60E9E7284682
:102AF000FFF718FF04460028E3D02846182100F00D
:102B0000F7F8054640B9FFF7BDFEA06DA58100F0BE
:102B100098F8FFF7BDFED4E7636ED80705D4A38904
:102B2000990502D4A06D00F08DF84FF6FF73E38194
:102B30000F4BA681C5E900942562C5F80880636241
:102B40000C4BC5F80CA0A3620B4B2F61002F18BFD4
:102B50001F460E9BE7626B61084B2363636EDA07C7
:102B6000B0D4B305AED4A06D00F06DF8AAE700BFF5
:102B70006F2A001AB129001A392A001A012A001AEC
:102B800082B030B585B00D4608A981E80C0009ABCC
:102B9000044693E807008DE807000648089B006894
:102BA0002A462146FFF77EFF05B0BDE8304002B05F
:102BB000704700BF880000102DE9F843064688469C
:102BC00000F148040027D4E90195B9F1010905D5C0
:102BD0002468002CF7D13846BDE8F883AB89012B77
:102BE00007D9B5F90E30013303D029463046C04726
:102BF00007436835E9E7000070B50D4D0D4C641BC7
:102C0000A4100026A64209D10B4D0C4CFDF7F1FC97
:102C1000641BA4100026A64205D170BD55F8043BE4
:102C200098470136EEE755F8043B98470136F2E73E
:102C30000003001A0003001A0003001A0403001A1C
:102C4000704770477047704702440346934200D173
:102C5000704703F8011BF9E737B5002944D051F854
:102C6000043C0190002BA1F10404B8BFE41800F06B
:102C7000F7FB1E4A0198136833B96360146003B010
:102C8000BDE8304000F0F2BBA34208D925686119C5
:102C90008B4201BF19685B6849192160EDE71A464C
:102CA0005B680BB1A342FAD911685518A5420BD144
:102CB000246821445418A3421160E0D11C685B6869
:102CC000536021441160DAE702D90C230360D6E790
:102CD000256861198B4204BF19685B68636004BF93
:102CE000491921605460CAE703B030BDB801001033
:102CF000F8B5CD1C25F0030508350C2D38BF0C2583
:102D0000002D064601DBA94203D90C2333600020C5
:102D1000F8BD00F0A5FB21490A6814469CB9204F74
:102D20003B6823B921463046FDF7B8FC3860294698
:102D30003046FDF7B3FC431C23D10C2333603046EF
:102D400000F094FBE3E723685B1B17D40B2B03D93C
:102D500023601C44256004E06368A2420CBF0B6042
:102D60005360304600F082FB04F10B00231D20F07D
:102D70000700C21ACCD01B1AA350C9E722466468C8
:102D8000CCE7C41C24F00304A042E3D0211A30464F
:102D9000FDF784FC0130DDD1CFE700BFB8010010A2
:102DA000BC0100109368013B002B10B4936008DA5B
:102DB0009469A34201DB0A2903D15DF8044B00F0BA
:102DC00099B91368581C1060197008465DF8044BD7
:102DD0007047F8B506460F461446D518AC4201D1E7
:102DE000002007E014F8011B3A463046FFF7DAFFEF
:102DF000431CF3D1F8BD00002DE9F04F0D469DB006
:102E000014469846064618B183690BB9FFF752FD80
:102E1000894B9D421BD175686B6ED90705D4AB8970
:102E20009A0502D4A86DFFF70DFFAB891B0701D5EA
:102E30002B69EBB92946304600F0AEF9C0B16B6E94
:102E4000DC070ED54FF0FF301DB0BDE8F08F7B4B97
:102E50009D4201D1B568DFE7794B9D4208BFF56817
:102E6000DAE7AB899805EDD4A86DFFF7ECFEE9E74A
:102E70000023099320238DF82930CDF80C803023CE
:102E8000DFF8C0818DF82A304FF0010923469A46B9
:102E900013F8012B0AB1252AF9D1BAEB040B0BD098
:102EA0005B46224629463046FFF793FF013000F08B
:102EB000AA80099A5A4409929AF80030002B00F02F
:102EC000A28000234FF0FF32CDE905230AF1010A69
:102ED000049307938DF853301A935446052214F83F
:102EE000011B584800F06CFA049AD8B9D10644BFC7
:102EF00020238DF85330130744BF2B238DF8533014
:102F00009AF800302A2B15D0079A544600204FF02B
:102F10000A0C214611F8013B303B092B4ED9B0B1C8
:102F2000079214E0A0EB080309FA03F31343049398
:102F3000A246D2E7039B191D1B680391002BBBBF60
:102F40005B4242F0020207930793B8BF04922378D2
:102F50002E2B0CD163782A2B35D1039B1A1D1B68AD
:102F60000392002BB8BF4FF0FF3302340593DFF814
:102F7000E4A021780322504600F022FA40B1402319
:102F8000A0EB0A0003FA00F0049B0343013404930E
:102F900014F8011B2C488DF82810062200F010FAB6
:102FA00000283FD0294B1BBB039B073323F00703AB
:102FB00008330393099B3B44099367E70CFB0232F8
:102FC0000C460120A5E700230134059319464FF074
:102FD0000A0C204610F8012B303A092A03D9002B9D
:102FE000C5D00591C3E70CFB012104460123F0E79E
:102FF00003AB00932A46164B04A93046AFF300807A
:103000000746781CD6D16B6ED90705D4AB899A05D3
:1030100002D4A86DFFF717FEAB895B063FF512AF30
:10302000099811E703AB00932A46094B04A93046DF
:1030300000F090FAE4E700BF603B001A803B001A02
:10304000403B001AA43B001AAE3B001A00000000EF
:10305000D32D001AAA3B001A13460A46014602481D
:103060000068FFF7C9BE00BF8800001010B50C460D
:10307000B1F90E10FDF7D6FA0028ABBF636DA38936
:103080001B1823F48053ACBF6365A38110BD2DE9E9
:10309000F0411F468B89DB0505460C46164605D5D3
:1030A000B1F90E1002230022FDF7B7FAA389B4F993
:1030B0000E1023F48053A38132463B462846BDE8D8
:1030C000F041FDF7D6BA10B50C46B1F90E10FDF778
:1030D000A4FA431CA38915BF606523F4805343F40D
:1030E0008053A38118BFA38110BDB1F90E10FDF765
:1030F00081BA0000F8B50E461446054618B183693A
:103100000BB9FFF7D7FB214B9C422BD16C68A3690D
:10311000A360A3891A072FD523696BB3236920689D
:10312000C01A6369F6B28342374604DC214628465A
:10313000FFF72CFB30BBA368013BA36023685A1C3C
:1031400022601E7063690130834204D0A389DB07CB
:1031500006D50A2E04D121462846FFF717FB88B969
:103160003846F8BD0A4B9C4201D1AC68CFE7094B09
:103170009C4208BFEC68CAE72146284600F00CF8DC
:103180000028CBD04FF0FF37EAE700BF603B001AC2
:10319000803B001A403B001A324B70B51D68064652
:1031A0000C4625B1AB6913B92846FFF783FB2E4BBC
:1031B0009C420FD16C68A389B4F90C2019072CD458
:1031C000DD0611D40923336042F04003A3814FF0A0
:1031D000FF303EE0254B9C4201D1AC68EBE7244B2D
:1031E0009C4208BFEC68E6E7580712D5616B41B115
:1031F00004F14403994202D03046FFF72DFD00232D
:103200006363A38923F02403A381002363602369FC
:103210002360A38943F00803A38123694BB9A389E1
:1032200003F42073B3F5007F03D02146304600F04D
:1032300083F8A089B4F90C2010F001030AD0002310
:10324000A36063695B42A361236943B910F0800006
:10325000BAD170BD810758BF6369A360F4E700204D
:10326000F7E700BF88000010603B001A803B001A9F
:10327000403B001A014B1868704700BF88000010DF
:103280000B78722B30B522D0772B24D0612B27D02E
:1032900016230360002030BD622D12D0782D13D08C
:1032A0002B2D07D120F01C0023F0030340F0100069
:1032B00043F0020311F8015F002DEDD123431360A9
:1032C000E9E743F48033F5E743F40063F2E70024D1
:1032D00023460420EEE74FF4C06401230820E9E709
:1032E0004FF4027401234FF48470E3E770B50E4687
:1032F000B1F90E10002996B014461D4608DAB6F949
:103300000C3000222A601A0610D44FF480630EE0BD
:103310006A46FDF774F90028F1DB019A02F4704265
:10332000A2F500535A425A412A60EEE7402300209A
:10333000236016B070BD00008B8973B59D070646EB
:103340000C4607D504F14703236023610123636121
:1033500002B070BD01AB6A46FFF7C8FF0099054691
:103360003046FFF7C5FC48B9B4F90C309A05EFD4E4
:1033700023F0030343F00203A381E3E70D4BB362A1
:10338000A389206043F08003A381009B6361019BBC
:1033900020615BB1B4F90E103046FDF735F928B164
:1033A000A38923F0030343F00103A381A08905430C
:1033B000A581CDE74D28001A0000000000000000A4
:1033C00001F0FF01102A2BDB10F0070F08D010F8D6
:1033D000013B013A8B422DD010F0070F42B3F6D1DA
:1033E000F0B441EA012141EA014122F007047FF0F3
:1033F00000070023F0E80256083C85EA010586EA4A
:10340000010685FA47F5A3FA87F586FA47F6A5FA85
:1034100087F68EB9EED1F0BC01F0FF0102F0070291
:1034200032B110F8013B013A83EA010313B1F8D13C
:103430000020704701387047002D06BF354603381D
:10344000073815F0010F07D1013015F4807F02BF56
:10345000013015F4C03F0130F0BC0138704700BFA7
:103460000148FFF7EFBB00BFB40100100148FFF7B0
:10347000EABB00BFB40100102DE9F047164699469B
:103480008A680B69DDF820809342B8BF1346336029
:1034900091F8432007460C460AB101333360236894
:1034A000990642BF336802333360256815F006057C
:1034B00006D104F1190AE36832689B1AAB4226DC94
:1034C00094F84320131E226818BF012392062BD4C0
:1034D00004F1430249463846C04701301ED02368F4
:1034E000E568326803F00603042B08BFAD1AA36831
:1034F00022690CBF25EAE57500259342C4BF9B1ADB
:10350000ED1800261A34B5421AD1002008E0012334
:10351000524649463846C047013003D14FF0FF308C
:10352000BDE8F0870135C6E7E1185A1C302081F864
:103530004300224494F8451082F843100233C7E751
:103540000123224649463846C0470130E6D00136BD
:10355000D9E700002DE9FF470F7E0C9D782F91469B
:1035600080460C469A4601F1430207D8622F0AD8DA
:10357000002F00F0D880582F00F0A38004F14205FE
:1035800084F842703AE0A7F16303152BF6D801A145
:1035900051F823F0ED35001A0136001A7D35001A76
:1035A0007D35001A7D35001A7D35001A0136001A66
:1035B0007D35001A7D35001A7D35001A7D35001ADB
:1035C0000D37001A3136001AEF36001A7D35001A11
:1035D0007D35001A2F37001A7D35001A3136001A52
:1035E0007D35001A7D35001AF736001A2B681A1D32
:1035F0001B682A6004F1420584F842300123A3E0ED
:1036000020682968060601F104030AD50E682B60BC
:10361000002E03DA2D23764284F843305E480A23D5
:1036200019E00E682B6010F0400F18BF36B2EFE7BC
:103630002B682068191D2960010601D51E6802E06B
:103640004606FBD51E8854486F2F0CBF08230A235B
:10365000002184F843106568A560002DA2BF216891
:1036600021F0040121600EB9002D4DD01546B6FBA6
:10367000F3F103FB1167C75D05F8017D3746BB42D7
:103680000E46F4D9082B0BD12368DE0708D5236931
:1036900061689942DEBF302305F8013C05F1FF3532
:1036A000521B2261CDF800A04B4603AA214640469A
:1036B000FFF7E2FE01304CD14FF0FF3004B0BDE81F
:1036C000F087354881F845702968236851F8046B04
:1036D00029601D0614D5DF0744BF43F02003236093
:1036E0001EB9236823F0200323601023B0E723686A
:1036F00043F0200323607823284884F84530E3E72B
:10370000590648BFB6B2E6E71546BBE72B68266800
:103710006169181D286035061B6801D5196002E033
:103720007006FBD51980002323611546BAE72B6884
:103730001A1D2A601D68626800212846FFF740FEB6
:1037400008B1401B606063682361002384F8433044
:10375000A8E723692A4649464046D0470130ABD006
:1037600023689B0713D4E068039B9842B8BF1846B0
:10377000A4E70123324649464046D04701309BD05A
:103780000135E36803995B1AAB42F2DCEBE70025F5
:1037900004F11906F5E700BFB53B001AC63B001A55
:1037A00025630A0D000000004269656E76656E694A
:1037B000646F20616C20636F6E74726F6C61646FF4
:1037C000722052474220706F7220554152542E0A87
:1037D0000D00000052203D20524F4A4F0A0D0000BC
:1037E00047203D2056455244450A0D0042203D20C9
:1037F000415A554C0A0D000056203D2056494F4C69
:103800004554410A0D00000059203D20414D4152D0
:10381000494C4C4F0A0D000057203D20424C414E70
:10382000434F0A0D0000000043203D2043454C4516
:103830005354450A0D0000004E203D204E4547528E
:103840004F0A0D0030203D20544F47474C45204C37
:1038500045440A0D000000000000000000040008BC
:1038600000090109050005010502000E010B010C0C
:10387000030003030304050F0510030503060307F4
:1038800002080000001BB700010F01010200440004
:103890000201440002024400020A4000020B400000
:1038A000020C4000010050000101500001025000D4
:1038B00001065000060150000604500006055000A5
:1038C000060754000608540006095000060A500076
:1038D000060B5000060C50000F04F0000103D50049
:1038E0000104D5000701160007025600020352002A
:1038F000020452000905520009065700060257004B
:10390000030F0F0FFF000000000005000A00200059
:10391000240009004000400005006000A6000400EB
:10392000C000C3000200E000E0000100000100014F
:103930000300200120010600400140010C0042016B
:10394000420119006201620113008201820112002A
:10395000A201A2011100C201C2011000E201E201B4
:103960000F00020202020E00220222020D002302B8
:1039700023021C0000010100090901000A090100DD
:103980000107010102090100060901000C090101FA
:103990000D0901000E0901000F09010010090100C5
:1039A000110901001209010013090100141101009D
:1039B000191101001A1101001B110100C201A2011D
:1039C0008201620181008200A100A20004010002C4
:1039D00001070500030D01050001080402000202B1
:1039E00004030002030400000200070400030C03A8
:1039F0000204050903010405080203040503020487
:103A0000040504060C000208060B00030706090063
:103A10000305060704050F0604000303040400025F
:103A20000404050002050406000206040804050C4F
:103A3000040A04050E010300000A011400000F012E
:103A40001200000D011100000C0110000003070717
:103A500000030F00010000010000000000060A0042
:103A6000030606080405100605000304060100030A
:103A700000040904050D010400000B010F00000201
:103A8000010000000401010000080102000009011A
:103A900006000109020004050002010405010202FA
:103AA000040502020A00000E020B00010B020C00CA
:103AB000010C000000400840200000000C00000045
:103AC00000500840210000000D00000000300C40B4
:103AD000220000000E00000000400C402300000007
:103AE0000F0000000010084006040206050218003E
:103AF00000100840090507090607180000200840C3
:103B0000000000000000190000100C40070106072B
:103B100002061A0000100C40010F010110011A00EA
:103B200000200C400203020204021B00772B00005D
:103B3000FF1D001AF11D001A000000000000000027
:103B40000000000000000000000000000000000075
:103B50000000000000000000000000000000000065
:103B60000000000000000000000000000000000055
:103B70000000000000000000000000000000000045
:103B80000000000000000000000000000000000035
:103B90000000000000000000000000000000000025
:103BA0008C000010232D302B2000686C4C006566C3
:103BB000674546470030313233343536373839417E
:103BC0004243444546003031323334353637383994
:083BD000616263646566000098
:083BD80040E7FF7F010000003F
:103BE0004EFFFFFF00100A4022000000DD0F001A08
:103BF00000000000000000000000000000000000C5
:103C000000000E4001000000DD0F001A000000005F
:103C100000000000000000000000000000CB280CA5
:103C20000100000000000000C717001AC517001AA5
:103C3000C517001AC517001AC717001AC517001AAA
:103C4000C517001AC517001AC717001AC517001A9A
:103C5000C517001AC517001AC717001AC517001A8A
:103C6000C517001AC517001A8C00001000000000CC
:103C7000603B001A803B001A403B001A0000000025
:103C80000000000000000000000000000000000034
:103C90000000000000000000000000000000000024
:103CA0000000000000000000000000000000000014
:103CB0000000000000000000000000000000000004
:0C3CC000000000000000000000000000F8
:040000051A0005696F
:00000001FF
